:020000040800F2
:10000000002000200D0C0008150D0008170D000839
:1000100000000000000000000000000000000000E0
:10002000000000000000000000000000190D0008A2
:1000300000000000000000001B0D00081D0D00085E
:100040005D0C00085D0C00085D0C00085D0C0008EC
:100050005D0C00085D0C00085D0C00085D0C0008DC
:100060005D0C00085D0C00085D0C00085D0C0008CC
:100070005D0C00085D0C00085D0C00085D0C0008BC
:100080005D0C00085D0C0008000000005D0C00081D
:100090005D0C00085D0C00085D0C00085D0C00089C
:1000A0005D0C00085D0C00085D0C00085D0C00088C
:1000B0005D0C0008000000005D0C0008000000005E
:0400C0005FF808F1EC
:1000C40070B50500094C86006D0082B030590121DD
:1000D400641900F037FC238A69460093044B0193AA
:1000E400044BF05800F040F902B070BD900E0008C7
:1000F4000103000100000020044B8200D258044B8D
:1001040040001B181B8A93617047C0460000002002
:10011400900E0008044B8200D258044B40001B1878
:100124001B8A13857047C04600000020900E00080B
:10013400054B8200D158054B40001B188A8A1B8A44
:1001440053408B827047C04600000020900E000888
:1001540030B50400802087B00D008002012100F03A
:10016400F1FB0121012000F0F9FB01236A4602930F
:10017400002313730233D3730F4BA4001B191869A4
:1001840002A900F0F1F8012D01D007B030BD002123
:10019400002000F095FC80236A461B0104A893828A
:1001A4009575049500F028F86A46044B01A89380DD
:1001B400957100F07DF9E8E70000002005030000D8
:1001C40010B5044B80001B180121186900F03AF99E
:1001D40010BDC04600000020044B054A1A600022EE
:1001E4005A609A60DA60034A5A6170470004014019
:1001F4000000940FFFFF6B00174B30B59C4602794B
:1002040004688379E1436244002B1AD063461D6875
:100214000D401D605D6829405960116821431160DB
:100224009968026891439960D9689143D96041798A
:1002340010290AD0084B9C4661440B681A430A6093
:1002440002E013681940116030BD99681143996048
:10025400D9680A43DA60F7E700040140C0220023AA
:1002640012010360828083717047C046024A136999
:10027400034313617047C04600040140034B5B69AC
:100284001840431E9841C0B27047C0460004014064
:10029400014B58617047C046000401400300054A01
:1002A400002011685269134203D00B405A1E934137
:1002B400D8B2704700040140014B58617047C046F2
:1002C40000040140902310B5DB05984217D0224B5F
:1002D40098421FD0214B984227D0214B984203D0FB
:1002E400204B98422CD010BD80200121400300F007
:1002F4004DFB80200021400300F048FBF3E7802001
:100304000121800200F042FB80200021800200F0E5
:100314003DFBE8E780200121C00200F037FB80208C
:100324000021C00200F032FBDDE780200121000340
:1003340000F02CFB80200021000300F027FBD2E713
:1003440080200121C00300F021FB80200021C00394
:1003540000F01CFBC7E7C046000400480008004842
:10036400000C004800140048F0B5DE4645465746E8
:100374004E460124E0B50B68A34602349C46002295
:100384000023A04683B003E001330232102B38D09F
:100394005C4665469C402540AC42F5D146469640B5
:1003A400F7430D7901976E1E012E14D886683E40DE
:1003B40086608668B2464E799640B14656464F46A8
:1003C4003E4386608688A64386808E7984889E40D4
:1003D4003443A4B2848095400468019E01332640CE
:1003E400066004682543056045469540C468AC43EF
:1003F400C460CC79C56894402C43C4600232102B8D
:10040400C6D103B0F0BCBB46B246A946A046F0BD77
:10041400024B036080239B0043607047FFFF000092
:10042400802382B05B020193019B0B430193019BE8
:10043400C361C161019BC361C3690193C369019332
:1004440002B07047038A19400800431E9841C0B2A5
:100454007047C046008A80B27047C046838A1940FC
:100464000800431E9841C0B27047C046808A80B2DB
:100474007047C0468161704701857047002A01D0EA
:10048400816170470185FCE781827047072310B5BD
:100494000F240B409B009C409A40C90889004018D7
:1004A400016AA1430162016A0A43026210BDC046A7
:1004B4001F230122F0B505782B409A408378002B46
:1004C40017D00E4B03249C46FF23A9082C401D0083
:1004D4004078C026E4008001A5400340A340890081
:1004E4006144B6008F59AF433B438B5163461A6056
:1004F400F0BD80230149CA50FAE7C04600E100E09C
:10050400044A1369002902D00343136170478343EB
:100514001361FBE700ED00E0054A1368042803D0EB
:1005240004218B431360704703431360FBE7C04609
:1005340010E000E00121114B11481A680A431A60C7
:100544005A6802405A601A680E4802401A601A68D3
:100554000D4802401A605A680C4802400F205A6045
:10056400DA6A8243DA621A6B094802401A635A6BE8
:100574008A435A6300229A607047C04600100240C2
:100584000CB8FFF8FFFFF6FEFFFFFBFFFFFFC0FF05
:10059400ACFEFFFF0022024B1A7018707047C04671
:1005A4000210024000238022A02082B00B49019354
:1005B4009202C0000B68134209D0019B01330193DE
:1005C400019B064B18688003C00F02B07047019B63
:1005D40001330193019B8342ECD1F2E70010024006
:1005E400F821034AC00013688B4318431060704716
:1005F40000100240054A01211368002802D00B4371
:10060400136070478B431360FBE7C0460010024041
:10061400F821034AC000536B8B431843506370475F
:1006240000100240054A0121536B002802D00B43FD
:10063400536370478B435363FBE7C046001002408B
:10064400054A0421536B002802D08B43536370473F
:100654000B435363FBE7C046001002400121064BE5
:100664001A6A8A431A621A6A03318A431A621A6A34
:1006740002431A627047C046001002401821044B1E
:100684001A6A8A431A621A6A02431A627047C04697
:1006940000100240054A0121536A002802D00B438E
:1006A400536270478B435362FBE7C046001002401D
:1006B400054A10B55368054C2340536053680B43F7
:1006C4000343536010BDC04600100240FFFFC2FF49
:1006D400064A002805D0802311685B040B4313608D
:1006E4007047136802490B401360F9E70010024099
:1006F400FFFFFFFE0F21034AD36A8B430343D362F8
:100704007047C04600100240064A002805D08023E6
:1007140011681B030B4313607047136802490B40B5
:100724001360F9E700100240FFFFF7FF014B187058
:100734007047C046071002400321034A53688B43A5
:10074400034353607047C046001002400C20024B24
:100754005B6818407047C04600100240F021034A0D
:1007640053688B43034353607047C04600100240F4
:10077400034A044953680B40034353607047C0461F
:1007840000100240FFF8FFFF094B0A495A680A406B
:100794005A6059680204120C0A435A601A6B0649DB
:1007A400000C0A401A631A6B104318637047C04662
:1007B40000100240FFBFFFFFFFFEFFFF4021044B7C
:1007C4001A6B8A431A631A6B02431A637047C04652
:1007D400001002401021044B1A6B8A431A631A6BEF
:1007E40002431A637047C046001002400321044BC1
:1007F4001A6B8A431A631A6B02431A637047C04622
:10080400001002400C23344A70B5516804000B40B8
:10081400082B42D0314802002F4920604B68304DEC
:100824001B061B0FEB5CDA4062604B685B055B0FD9
:10083400EB5CDA40A2600B6BDB051BD549689308BF
:10084400490428D511252449E3600B6B5B06DB17AB
:10085400AB43244DAC46634423610B6B0100DB06C0
:1008640000D41E49032361611B490D6B2B4203D144
:10087400A26170BD1C4BE5E70A6B1A40012A1CD02B
:100884000A6B1A40022A22D00A6B1340032BF0D1C0
:10089400124BA361EDE75308D4E70F215068536866
:1008A400800C0840851CDB0309D46A01521B9301A8
:1008B4009B1ADB005B191802ADE7A061D9E7D36A84
:1008C40006481940013100F033F96843A3E7802357
:1008D4001B02A361CDE7C0460010024000127A005B
:1008E400C00E000812800000809FD500024A136ADF
:1008F400034313627047C04600100240064A0028B2
:1009040005D08023116A1B020B4313627047136ADC
:1009140002490B401362F9E700100240FF7FFFFF1A
:10092400064A002805D08023116A5B020B43136238
:100934007047136A02490B401362F9E70010024042
:10094400FFFFFEFF044A5369002902D003435361A9
:10095400704783435361FBE700100240044A9369E4
:10096400002902D003439361704783439361FBE7FB
:1009740000100240044AD369002902D00343D36122
:1009840070478343D361FBE700100240044A936A33
:10099400002902D003439362704783439362FBE7C9
:1009A40000100240044AD368002902D00343D360F4
:1009B40070478343D360FBE700100240044A136985
:1009C400002902D003431361704783431361FBE79B
:1009D40000100240044A1378002902D00343137024
:1009E400704783431370FBE709100240430907D1A2
:1009F4000A4B1A681F230340DA4001201040704755
:100A0400012B04D0022B05D0044B5A6BF2E7034BA5
:100A14001A6AEFE7014B5A6AECE7C046001002403D
:100A24008023034A5B04516A0B4353627047C046F8
:100A340000100240034B9B6803405A1E9341D8B2F6
:100A44007047C04600100240014B18707047C04602
:100A54000A1002400322074B19680A401A60002258
:100A64009A60DA601A615A6199690132FF320A4365
:100A74009A617047000001400321034A13688B43C5
:100A8400034313607047C04600000140044A1368E2
:100A9400002902D003431360704783431360FBE7CC
:100AA40000000140002904D0044B1A681043186068
:100AB4007047024A136883431360F9E7000001405A
:100AC400032310B50F24084A0B4094469B009C4016
:100AD40098408908890061448A68A2438A608A68C8
:100AE4001043886010BDC04600000140024A93696B
:100AF400034393617047C04600000140024B98696C
:100B0400C005C00F7047C04600000140024B9A69FF
:100B1400104398617047C0460000014002B471461A
:100B240049084900095C49008E4402BC7047C0462C
:100B3400002934D00123002210B488422CD301248C
:100B44002407A14204D2814202D209011B01F8E721
:100B5400E400A14204D2814202D249005B00F8E7DA
:100B6400884201D3401A1A434C08A04202D3001B06
:100B74005C0822438C08A04202D3001B9C08224339
:100B8400CC08A04202D3001BDC082243002803D077
:100B94001B0901D00909E3E7100010BC704701B537
:100BA400002000F00BF802BD0029F8D003B5FFF7D0
:100BB400C1FF0EBC4243891A1847C0467047C0465D
:100BC40070B500260C4C0D4D641BA410A64209D12F
:100BD400002600F07BF90A4C0A4D641BA410A642BF
:100BE40005D170BDB300EB5898470136EEE7B3006A
:100BF400EB5898470136F2E70000000000000000BF
:100C040000000000000000000D488546002103E0BC
:100C14000C4B5B58435004310B480C4B42189A421E
:100C2400F6D30B4A02E0002313600432094B9A42C4
:100C3400F9D300F013F8FFF7C3FF00F087F8FEE7DD
:100C440000200020E80E000800000020180000200A
:100C54001800002038000020FEE7000013B5012032
:100C64000F24244B24491A6802431A605A680A4024
:100C74005A601A6821490A401A601A6820490A40D1
:100C84001A605A681F490A405A60DA6AA243DA6253
:100C94001A6B1D4C22401A635A6B82435A6300221A
:100CA4009A6000920192194A103010605A685A6092
:100CB4005A685A605A680A405A60A02259689203D6
:100CC4000A435A608022196852040A431A60802237
:100CD400920419681142FCD003215A688A435A606D
:100CE400022259680A430C215A605A680A40082AA9
:100CF400FBD113BD001002400CB8FFF8FFFFF6FE55
:100D0400FFFFFBFFFFFFC0FFACFEFFFF0020024020
:100D14007047FEE77047704710B500F00DF810BD3E
:100D240082B00190019A034B1A601A68002AFCD120
:100D340002B0704718000020034B1A68002A02D042
:100D44001A68013A1A6070471800002070B54B4CBD
:100D54002000FFF757FDC8236068DB05984211D2D5
:100D64006421FFF7E5FEC021454A0138506045483B
:100D74000906036A1B021B0A0B43036200239360E8
:100D8400073313600020FFF79BF90120FFF798F960
:100D94000220FFF795F90320FFF792F900230725B6
:100DA400394C23702078072846D8FFF7B7FE041281
:100DB400202E394E555C0120FFF79EF90320FFF7E2
:100DC4009BF96420FFF7ACFF0120FFF7A3F9032090
:100DD4002DE00020FFF790F90220FFF78DF9642041
:100DE400FFF79EFF0020FFF795F902201FE0002087
:100DF400FFF782F90120FFF77FF96420FFF790FFE6
:100E04000020FFF787F9012011E00220FFF774F9B1
:100E14000320FFF771F96420FFF782FF0220D4E773
:100E24000020FFF769F91920FFF77AFF0020FFF788
:100E340071F91920FFF774FF2278531C032A19D87B
:100E440064202370FFF76CFFACE70120FFF754F92F
:100E54001920FFF765FFD6E70220FFF74DF91920A7
:100E6400FFF75EFFC1E70320FFF746F91920FFF7FC
:100E740057FFACE72B4032202370E3E71C0000202F
:100E840010E000E000ED00E0140000200000080085
:100E940000000800000008000000080040000001F5
:100EA40000028000050000000000000000000000B7
:100EB400010000000000020001000000000000002A
:100EC400010203040102030406070809F8B5C04639
:100ED400F8BC08BC9E467047F8B5C046F8BC08BCD0
:040EE4009E4670476F
:100EE80000080048000800480008004800080048BA
:080EF8000000004801000000A9
:0400000508000C0DD6
:00000001FF
